{
  "contractName": "BStorage",
  "abi": [
    {
      "anonymous": false,
      "inputs": [
        {
          "indexed": false,
          "internalType": "uint256",
          "name": "id",
          "type": "uint256"
        },
        {
          "indexed": false,
          "internalType": "string",
          "name": "hash",
          "type": "string"
        },
        {
          "indexed": false,
          "internalType": "string",
          "name": "description",
          "type": "string"
        },
        {
          "indexed": false,
          "internalType": "string",
          "name": "filename",
          "type": "string"
        },
        {
          "indexed": false,
          "internalType": "uint256",
          "name": "tipAmount",
          "type": "uint256"
        },
        {
          "indexed": false,
          "internalType": "address payable",
          "name": "author",
          "type": "address"
        }
      ],
      "name": "PostCreated",
      "type": "event"
    },
    {
      "anonymous": false,
      "inputs": [
        {
          "indexed": false,
          "internalType": "uint256",
          "name": "id",
          "type": "uint256"
        },
        {
          "indexed": false,
          "internalType": "string",
          "name": "hash",
          "type": "string"
        },
        {
          "indexed": false,
          "internalType": "string",
          "name": "description",
          "type": "string"
        },
        {
          "indexed": false,
          "internalType": "string",
          "name": "filename",
          "type": "string"
        },
        {
          "indexed": false,
          "internalType": "uint256",
          "name": "tipAmount",
          "type": "uint256"
        },
        {
          "indexed": false,
          "internalType": "address payable",
          "name": "author",
          "type": "address"
        }
      ],
      "name": "PostTipped",
      "type": "event"
    },
    {
      "inputs": [],
      "name": "name",
      "outputs": [
        {
          "internalType": "string",
          "name": "",
          "type": "string"
        }
      ],
      "stateMutability": "view",
      "type": "function",
      "constant": true
    },
    {
      "inputs": [],
      "name": "postCount",
      "outputs": [
        {
          "internalType": "uint256",
          "name": "",
          "type": "uint256"
        }
      ],
      "stateMutability": "view",
      "type": "function",
      "constant": true
    },
    {
      "inputs": [
        {
          "internalType": "uint256",
          "name": "",
          "type": "uint256"
        }
      ],
      "name": "posts",
      "outputs": [
        {
          "internalType": "uint256",
          "name": "id",
          "type": "uint256"
        },
        {
          "internalType": "string",
          "name": "hash",
          "type": "string"
        },
        {
          "internalType": "string",
          "name": "description",
          "type": "string"
        },
        {
          "internalType": "string",
          "name": "filename",
          "type": "string"
        },
        {
          "internalType": "uint256",
          "name": "tipAmount",
          "type": "uint256"
        },
        {
          "internalType": "address payable",
          "name": "author",
          "type": "address"
        }
      ],
      "stateMutability": "view",
      "type": "function",
      "constant": true
    },
    {
      "inputs": [
        {
          "internalType": "string",
          "name": "_postHash",
          "type": "string"
        },
        {
          "internalType": "string",
          "name": "_description",
          "type": "string"
        },
        {
          "internalType": "string",
          "name": "_filename",
          "type": "string"
        }
      ],
      "name": "uploadPost",
      "outputs": [],
      "stateMutability": "nonpayable",
      "type": "function"
    },
    {
      "inputs": [
        {
          "internalType": "uint256",
          "name": "_id",
          "type": "uint256"
        }
      ],
      "name": "tipPostOwner",
      "outputs": [],
      "stateMutability": "payable",
      "type": "function",
      "payable": true
    }
  ],
  "bytecode": "0x60806040526040518060400160405280600881526020017f4253746f72616765000000000000000000000000000000000000000000000000815250600090816200004a9190620002de565b5060006001553480156200005d57600080fd5b50620003c5565b600081519050919050565b7f4e487b7100000000000000000000000000000000000000000000000000000000600052604160045260246000fd5b7f4e487b7100000000000000000000000000000000000000000000000000000000600052602260045260246000fd5b60006002820490506001821680620000e657607f821691505b602082108103620000fc57620000fb6200009e565b5b50919050565b60008190508160005260206000209050919050565b60006020601f8301049050919050565b600082821b905092915050565b600060088302620001667fffffffffffffffffffffffffffffffffffffffffffffffffffffffffffffffff8262000127565b62000172868362000127565b95508019841693508086168417925050509392505050565b6000819050919050565b6000819050919050565b6000620001bf620001b9620001b3846200018a565b62000194565b6200018a565b9050919050565b6000819050919050565b620001db836200019e565b620001f3620001ea82620001c6565b84845462000134565b825550505050565b600090565b6200020a620001fb565b62000217818484620001d0565b505050565b5b818110156200023f576200023360008262000200565b6001810190506200021d565b5050565b601f8211156200028e57620002588162000102565b620002638462000117565b8101602085101562000273578190505b6200028b620002828562000117565b8301826200021c565b50505b505050565b600082821c905092915050565b6000620002b36000198460080262000293565b1980831691505092915050565b6000620002ce8383620002a0565b9150826002028217905092915050565b620002e98262000064565b67ffffffffffffffff8111156200030557620003046200006f565b5b620003118254620000cd565b6200031e82828562000243565b600060209050601f83116001811462000356576000841562000341578287015190505b6200034d8582620002c0565b865550620003bd565b601f198416620003668662000102565b60005b82811015620003905784890151825560018201915060208501945060208101905062000369565b86831015620003b05784890151620003ac601f891682620002a0565b8355505b6001600288020188555050505b505050505050565b61118b80620003d56000396000f3fe60806040526004361061004a5760003560e01c806306fdde031461004f5780630b1e7f831461007a57806317906c2e146100bc5780636e4d2b75146100e7578063d6313c0614610110575b600080fd5b34801561005b57600080fd5b5061006461012c565b60405161007191906109c5565b60405180910390f35b34801561008657600080fd5b506100a1600480360381019061009c9190610a31565b6101ba565b6040516100b396959493929190610aae565b60405180910390f35b3480156100c857600080fd5b506100d16103ae565b6040516100de9190610b24565b60405180910390f35b3480156100f357600080fd5b5061010e60048036038101906101099190610c74565b6103b4565b005b61012a60048036038101906101259190610a31565b610565565b005b6000805461013990610d4a565b80601f016020809104026020016040519081016040528092919081815260200182805461016590610d4a565b80156101b25780601f10610187576101008083540402835291602001916101b2565b820191906000526020600020905b81548152906001019060200180831161019557829003601f168201915b505050505081565b60026020528060005260406000206000915090508060000154908060010180546101e390610d4a565b80601f016020809104026020016040519081016040528092919081815260200182805461020f90610d4a565b801561025c5780601f106102315761010080835404028352916020019161025c565b820191906000526020600020905b81548152906001019060200180831161023f57829003601f168201915b50505050509080600201805461027190610d4a565b80601f016020809104026020016040519081016040528092919081815260200182805461029d90610d4a565b80156102ea5780601f106102bf576101008083540402835291602001916102ea565b820191906000526020600020905b8154815290600101906020018083116102cd57829003601f168201915b5050505050908060030180546102ff90610d4a565b80601f016020809104026020016040519081016040528092919081815260200182805461032b90610d4a565b80156103785780601f1061034d57610100808354040283529160200191610378565b820191906000526020600020905b81548152906001019060200180831161035b57829003601f168201915b5050505050908060040154908060050160009054906101000a900473ffffffffffffffffffffffffffffffffffffffff16905086565b60015481565b60008351116103c257600080fd5b60008251116103d057600080fd5b600073ffffffffffffffffffffffffffffffffffffffff163373ffffffffffffffffffffffffffffffffffffffff160361040957600080fd5b6001600081548092919061041c90610daa565b91905055506040518060c001604052806001548152602001848152602001838152602001828152602001600081526020013373ffffffffffffffffffffffffffffffffffffffff1681525060026000600154815260200190815260200160002060008201518160000155602082015181600101908161049b9190610f9e565b5060408201518160020190816104b19190610f9e565b5060608201518160030190816104c79190610f9e565b506080820151816004015560a08201518160050160006101000a81548173ffffffffffffffffffffffffffffffffffffffff021916908373ffffffffffffffffffffffffffffffffffffffff1602179055509050507f6dbf8011652ab6c578094a9a71e68b3aaa229e9556ac1da8264c9f191aac2395600154848484600033604051610558969594939291906110ab565b60405180910390a1505050565b60008111801561057757506001548111155b61058057600080fd5b6000600260008381526020019081526020016000206040518060c0016040529081600082015481526020016001820180546105ba90610d4a565b80601f01602080910402602001604051908101604052809291908181526020018280546105e690610d4a565b80156106335780601f1061060857610100808354040283529160200191610633565b820191906000526020600020905b81548152906001019060200180831161061657829003601f168201915b5050505050815260200160028201805461064c90610d4a565b80601f016020809104026020016040519081016040528092919081815260200182805461067890610d4a565b80156106c55780601f1061069a576101008083540402835291602001916106c5565b820191906000526020600020905b8154815290600101906020018083116106a857829003601f168201915b505050505081526020016003820180546106de90610d4a565b80601f016020809104026020016040519081016040528092919081815260200182805461070a90610d4a565b80156107575780601f1061072c57610100808354040283529160200191610757565b820191906000526020600020905b81548152906001019060200180831161073a57829003601f168201915b50505050508152602001600482015481526020016005820160009054906101000a900473ffffffffffffffffffffffffffffffffffffffff1673ffffffffffffffffffffffffffffffffffffffff1673ffffffffffffffffffffffffffffffffffffffff1681525050905060008160a0015190508073ffffffffffffffffffffffffffffffffffffffff166108fc349081150290604051600060405180830381858888f19350505050158015610811573d6000803e3d6000fd5b503482608001516108229190611121565b826080018181525050816002600085815260200190815260200160002060008201518160000155602082015181600101908161085e9190610f9e565b5060408201518160020190816108749190610f9e565b50606082015181600301908161088a9190610f9e565b506080820151816004015560a08201518160050160006101000a81548173ffffffffffffffffffffffffffffffffffffffff021916908373ffffffffffffffffffffffffffffffffffffffff1602179055509050507fe95f1d6bffe23e6139931bcdea8097548a1f20522ae5801a84d177ee798185508383602001518460400151856060015186608001518660405161092896959493929190610aae565b60405180910390a1505050565b600081519050919050565b600082825260208201905092915050565b60005b8381101561096f578082015181840152602081019050610954565b60008484015250505050565b6000601f19601f8301169050919050565b600061099782610935565b6109a18185610940565b93506109b1818560208601610951565b6109ba8161097b565b840191505092915050565b600060208201905081810360008301526109df818461098c565b905092915050565b6000604051905090565b600080fd5b600080fd5b6000819050919050565b610a0e816109fb565b8114610a1957600080fd5b50565b600081359050610a2b81610a05565b92915050565b600060208284031215610a4757610a466109f1565b5b6000610a5584828501610a1c565b91505092915050565b610a67816109fb565b82525050565b600073ffffffffffffffffffffffffffffffffffffffff82169050919050565b6000610a9882610a6d565b9050919050565b610aa881610a8d565b82525050565b600060c082019050610ac36000830189610a5e565b8181036020830152610ad5818861098c565b90508181036040830152610ae9818761098c565b90508181036060830152610afd818661098c565b9050610b0c6080830185610a5e565b610b1960a0830184610a9f565b979650505050505050565b6000602082019050610b396000830184610a5e565b92915050565b600080fd5b600080fd5b7f4e487b7100000000000000000000000000000000000000000000000000000000600052604160045260246000fd5b610b818261097b565b810181811067ffffffffffffffff82111715610ba057610b9f610b49565b5b80604052505050565b6000610bb36109e7565b9050610bbf8282610b78565b919050565b600067ffffffffffffffff821115610bdf57610bde610b49565b5b610be88261097b565b9050602081019050919050565b82818337600083830152505050565b6000610c17610c1284610bc4565b610ba9565b905082815260208101848484011115610c3357610c32610b44565b5b610c3e848285610bf5565b509392505050565b600082601f830112610c5b57610c5a610b3f565b5b8135610c6b848260208601610c04565b91505092915050565b600080600060608486031215610c8d57610c8c6109f1565b5b600084013567ffffffffffffffff811115610cab57610caa6109f6565b5b610cb786828701610c46565b935050602084013567ffffffffffffffff811115610cd857610cd76109f6565b5b610ce486828701610c46565b925050604084013567ffffffffffffffff811115610d0557610d046109f6565b5b610d1186828701610c46565b9150509250925092565b7f4e487b7100000000000000000000000000000000000000000000000000000000600052602260045260246000fd5b60006002820490506001821680610d6257607f821691505b602082108103610d7557610d74610d1b565b5b50919050565b7f4e487b7100000000000000000000000000000000000000000000000000000000600052601160045260246000fd5b6000610db5826109fb565b91507fffffffffffffffffffffffffffffffffffffffffffffffffffffffffffffffff8203610de757610de6610d7b565b5b600182019050919050565b60008190508160005260206000209050919050565b60006020601f8301049050919050565b600082821b905092915050565b600060088302610e547fffffffffffffffffffffffffffffffffffffffffffffffffffffffffffffffff82610e17565b610e5e8683610e17565b95508019841693508086168417925050509392505050565b6000819050919050565b6000610e9b610e96610e91846109fb565b610e76565b6109fb565b9050919050565b6000819050919050565b610eb583610e80565b610ec9610ec182610ea2565b848454610e24565b825550505050565b600090565b610ede610ed1565b610ee9818484610eac565b505050565b5b81811015610f0d57610f02600082610ed6565b600181019050610eef565b5050565b601f821115610f5257610f2381610df2565b610f2c84610e07565b81016020851015610f3b578190505b610f4f610f4785610e07565b830182610eee565b50505b505050565b600082821c905092915050565b6000610f7560001984600802610f57565b1980831691505092915050565b6000610f8e8383610f64565b9150826002028217905092915050565b610fa782610935565b67ffffffffffffffff811115610fc057610fbf610b49565b5b610fca8254610d4a565b610fd5828285610f11565b600060209050601f8311600181146110085760008415610ff6578287015190505b6110008582610f82565b865550611068565b601f19841661101686610df2565b60005b8281101561103e57848901518255600182019150602085019450602081019050611019565b8683101561105b5784890151611057601f891682610f64565b8355505b6001600288020188555050505b505050505050565b6000819050919050565b600061109561109061108b84611070565b610e76565b6109fb565b9050919050565b6110a58161107a565b82525050565b600060c0820190506110c06000830189610a5e565b81810360208301526110d2818861098c565b905081810360408301526110e6818761098c565b905081810360608301526110fa818661098c565b9050611109608083018561109c565b61111660a0830184610a9f565b979650505050505050565b600061112c826109fb565b9150611137836109fb565b925082820190508082111561114f5761114e610d7b565b5b9291505056fea26469706673582212202c1fe7811068c0d41e1cd823e85b7991cf8b7094c022df360e770a808eac3ef664736f6c63430008100033",
  "immutableReferences": {},
  "source": "pragma solidity ^0.8.0;\r\n\r\ncontract BStorage {\r\n  string public name = 'BStorage';\r\n\r\n  // Store Files\r\n  uint public postCount = 0;\r\n  mapping(uint => Post) public posts;\r\n\r\n  struct Post {\r\n    uint id;\r\n    string hash;\r\n    string description;\r\n    string filename;\r\n    uint tipAmount;\r\n    address payable author;\r\n  }\r\n\r\n  event PostCreated(\r\n    uint id,\r\n    string hash,\r\n    string description,\r\n    string filename,\r\n    uint tipAmount,\r\n    address payable author\r\n  );\r\n\r\n  event PostTipped(\r\n    uint id,\r\n    string hash,\r\n    string description,\r\n    string filename,\r\n    uint tipAmount,\r\n    address payable author\r\n  );\r\n\r\n  // Create Posts\r\n  function uploadPost(string memory _postHash, string memory _description, string memory _filename) public {\r\n    // Make sure hash exists\r\n    require(bytes(_postHash).length > 0);\r\n\r\n    // Make sure it's not empty\r\n    require(bytes(_description).length > 0);\r\n\r\n    // Make sure uploader address exists\r\n    require(msg.sender != address(0x0));\r\n\r\n    // Increment post id\r\n    postCount ++;\r\n\r\n    // Add post to contract\r\n    posts[postCount] = Post(postCount, _postHash, _description, _filename, 0, payable(msg.sender));\r\n\r\n    // Trigger an event\r\n    emit PostCreated(postCount, _postHash, _description, _filename, 0, payable(msg.sender));\r\n  }\r\n\r\n  // Tip Posts\r\n  function tipPostOwner(uint _id) public payable {\r\n    // Make sure the id is valid\r\n    require(_id > 0 && _id <= postCount);\r\n    // Fetch the post\r\n    Post memory _post = posts[_id];\r\n\r\n    // Fetch the author\r\n    address payable _author = _post.author;\r\n\r\n    // Send eth\r\n    _author.transfer(msg.value);\r\n\r\n    // Increment the tip amount\r\n    _post.tipAmount = _post.tipAmount + msg.value;\r\n\r\n    // Update the post\r\n    posts[_id] = _post;\r\n\r\n    // Trigger event\r\n    emit PostTipped(_id, _post.hash, _post.description, _post.filename, _post.tipAmount, _author);\r\n  }\r\n}",
  "sourcePath": "/home/wale/data/storage/src/contracts/BStorage.sol",
  "compiler": {
    "name": "solc",
    "version": "0.8.16+commit.07a7930e.Emscripten.clang"
  },
  "schemaVersion": "3.4.8",
  "updatedAt": "2022-08-26T10:20:37.564Z",
  "networkType": "ethereum",
  "devdoc": {
    "kind": "dev",
    "methods": {},
    "version": 1
  },
  "userdoc": {
    "kind": "user",
    "methods": {},
    "version": 1
  }
}